:1000000023C032C031C030C02FC012C12DC02CC09F
:100010002BC02AC029C028C027C0CFC153C10102AC
:100020000000040000000000000000003800000094
:100030000000370002020202020202020202010272
:10004000040810202004100811241FBECFE5D2E0C0
:10005000DEBFCDBF20E0A0E6B0E001C01D92A03918
:10006000B207E1F7C7D11FC2CBCF90E0FC01E25C41
:10007000FF4F24918C5C9F4FFC018491882399F061
:1000800090E0880F991FFC01E25DFF4FA591B491AC
:10009000FC01E85DFF4F859194918FB7F894EC9146
:1000A000E22BEC938FBF089590E0FC01E25EFF4FDE
:1000B0003491FC01E25CFF4F2491FC01EC5CFF4FAA
:1000C000E491EE23B9F0332329F0323001F198F4B2
:1000D0003130C9F0F0E0EE0FFF1FE85DFF4FA59152
:1000E000B4918FB7F894EC91611114C020952E2330
:1000F0002C938FBF0895333011F0343059F78CB5FD
:100100008F7D8CBDE7CF8AB58F778ABDE3CF8AB567
:100110008F7DFBCF2E2BECCF1F93CF93DF93182F28
:10012000EB01A3DF209731F460E0812FDF91CF91C5
:100130001F91BACFE12FF0E0E25EFF4FE491E23091
:10014000A1F050F4E13081F78AB580688ABDC9BD5D
:10015000DF91CF911F910895E33061F0E43021F7F2
:100160008CB580628CBDCBBDF3CF8AB580628ABD71
:10017000C8BDEECF8CB580628CBDCEBDE9CF3FB798
:10018000F89480918C0090918D00A0918E00B09198
:100190008F0022B708B601FE05C02F3F19F0019667
:1001A000A11DB11D3FBFBA2FA92F982F8827BC01D1
:1001B000CD01620F711D811D911D46E0660F771FF5
:1001C000881F991F4A95D1F708958F929F92AF92F9
:1001D000BF92CF92DF92EF92FF92D1DF4B015C0191
:1001E0008DE7C82ED12CE12CF12CC9DF68197909D3
:1001F0008A099B09683E734081059105B0F321E0AF
:10020000C21AD108E108F10888EE880E83E0981E32
:10021000A11CB11CC114D104E104F10431F7FF9019
:10022000EF90DF90CF90BF90AF909F908F90089508
:100230001F920F920FB60F9211242F933F938F931B
:100240009F93AF93BF938091880090918900A09174
:100250008A00B0918B003091870020E3230F2D3767
:1002600058F54096A11DB11D20938700809388000A
:1002700090938900A0938A00B0938B0080918C00AA
:1002800090918D00A0918E00B0918F000196A11DDC
:10029000B11D80938C0090938D00A0938E00B0933D
:1002A0008F00BF91AF919F918F913F912F910F90B0
:1002B0000FBE0F901F90189523EB230F4196A11DA1
:1002C000B11DD2CF1F920F920FB60F9211248F93B0
:1002D0009F93EF93FF938091600090916100823033
:1002E000910509F458C068F40097F1F00197B1F155
:1002F000FF91EF919F918F910F900FBE0F901F90E4
:1003000018958430910509F450C010F1059781F7D4
:10031000809162008F5F8F71809362008091620094
:100320008FB184E090E00DC08FB1882331F08FB1A0
:1003300086959091640089130EC0789BF2CF81E07E
:1003400090E090936100809360001FB8B89A2BC032
:100350008FB1882319F088EA8DB91AC09091860070
:10036000809185009817B9F3809185008F5F8F7118
:1003700080938500E0918500F0E0EB59FF4F80818C
:100380008FB982E090E09093610080936000B89A0A
:1003900080E78EB9ADCF83E090E0909361008093C9
:1003A0006000B8981FB88EE7F4CF85E090E0909396
:1003B000610080936000B898EBCF1F920F920FB648
:1003C0000F9211248F931092610010926000B898E0
:1003D000B29B02C0B09BFCCFB0990AC088EF8DB928
:1003E00080EF8EB98F910F900FBE0F901F901895D0
:1003F00088EAF5CF78948AB582608ABD8AB5816033
:100400008ABD83B7826083BF83B7816083BF89B7AA
:10041000826089BF80B7826080BF3298319A309AFB
:10042000379A8CB580648CBD81E01FDE109263002A
:1004300010926200109285001092860085E08093F1
:10044000640087B3856087BBC29AC09AB89888EA6F
:100450008DB980EF8EB985E0F82E00E010E0D0E095
:10046000C0E0BE0181E058DEB0DE2596C931D1057D
:10047000C1F7BE0181E050DEA8DE2197D0F7809160
:1004800086008F5F8F71909185008917E1F3E82FC7
:10049000F0E0EB59FF4FF0828093860001151105C3
:0A04A000F1F2AEDDDCCFF894FFCFDF
:00000001FF
